:0200000001906D
:02000B0080264D
:10003000758130C0E0E55AF5A0E55AB40007E55FE8
:1000400093F5908028B40107E55E93F590801EB487
:100050000207E55D93F5908014B40307E55C93F522
:1000600090800AB40407E55B93F5908000E55AB4EC
:1000700004078000755A008004055A8000758A00C4
:10008000758C00D0E0323F065B4F666D7D077F6F59
:1000900075900075A0FF755A0090008675890175EE
:1000A0008AB0758C3CD2A9D2AFD28C755F01755ED7
:0C00B00002755D03755C04755B0580FE45
:00000001FF
