:100000002158C0E0C0F0C3756700756800756900CD
:10001000757000756B00E566F5F0E56484F567E5DD
:10002000F0F569756A08E56533F565E56933F569E5
:10003000C3E5699566400AF569D3E56833F56880DC
:1000400006C3E56833F568156AE56AB400D8D0F0F0
:10005000D0E022C0E0C0F0756D00756E00756F00D5
:1000600075660AE56CF565E56BF5641102E568F502
:100070006CE567F56BE569F56F75660AE56CF56526
:10008000E56BF5641102E568F56CE567F56B755095
:1000900004E5692569F5691550E550B400F3E56993
:1000A000256FF56F75660AE56CF565E56BF564110E
:1000B00002E568F56CE567F56BE569F56E75660A4E
:1000C000E56CF565E56BF5641102E568F56CE567CF
:1000D000F56B755004E5692569F5691550E550B46F
:1000E00000F3E569256EF56E75660AE56CF565E564
:1000F0006BF5641102E568F56CE567F56BE569F58C
:100100006D75660AE56CF565E56BF5641102E568E9
:10011000F56CE567F56B755004E5692569F56915BA
:1001200050E550B400F3E569256DF56DD0F0D0E0F1
:060130002290016AE55275
:10013600540F93F590E55203030303540F93F5B060
:10014600E551540F93F5A0E55103030303540F93B0
:10015600F580756BFF756CFF1153E56FF552E56E13
:0E016600F55131313F065B4F666D7D077F6FAF
:00000001FF
