:1000000021AC90022AE552540F93F590E552030378
:100010000303540F93F5B0E551540F93F5A0E55148
:1000200003030303540F93F580C0E0C3E5713573F8
:10003000F575E5703400F574D0E022C0E0C3E577D3
:100040009579F57BE5769400F57AD0E022C0E0C0A2
:10005000F0E57DF5F0E57FA4F562E5F0F561E57C7E
:10006000F5F0E57FA4F563E5F0F560C3E563256190
:10007000F561E5603400F560D0F0D0E022C0E0C06A
:10008000F0C3756700756800756900757000756B61
:1000900000E566F5F0E56484F567E5F0F569756AF5
:1000A00008E56533F565E56933F569C3E569956686
:1000B000400AF569D3E56833F5688006C3E568331F
:1000C000F568156AE56AB400D8D0F0D0E022C0E047
:1000D000C0F0756D00756E00756F0075660AE56C91
:1000E000F565E56BF564117DE568F56CE567F56B25
:1000F000E569F56F75660AE56CF565E56BF5641104
:100100007DE568F56CE567F56B755004E569256973
:0B011000F5691550E550B400F3E569F7
:10011B00256FF56F75660AE56CF565E56BF5641192
:10012B007DE568F56CE567F56BE569F56E75660A57
:10013B00E56CF565E56BF564117DE568F56CE567D8
:10014B00F56B755004E5692569F5691550E550B4F3
:10015B0000F3E569256EF56E75660AE56CF565E5E8
:10016B006BF564117DE568F56CE567F56BE569F595
:10017B006D75660AE56CF565E56BF564117DE568F3
:10018B00F56CE567F56B755004E5692569F569153F
:10019B0050E550B400F3E569256DF56DD0F0D0E076
:1001AB002275800075900075A00075B0007570A366
:1001BB007571457573BB1129E574F564E575F565C6
:1001CB00756656117DE567F576E568F5777579E81F
:1001DB00113BE57AF57CE57BF57D757FD2114DE51D
:1001EB0061F576E562F57775799C113BE57AF564F7
:1001FB00E57BF565756639117DE567F570E568F5A5
:10020B00717573351129E574F57CE575F57D757F91
:10021B0038114DE562F552E561F551110280FE3F53
:0F022B00065B4F666D7D077F6F777C395E79715B
:00000001FF
